:10091E00C2B6C2B78F807F057E00120931D2B77F73
:03092E00057E0043
:10093100D3EF9400EE940040147D6E7C00ED1D70A9
:0D094100011CED4C70F7EF1F70E61E80E307
:01094E002286
:080AE000C2B512091EC2B722C3
:100A64007F38120AE07F0C120AE07F06120AE07F48
:040A740001020AE091
:080AE800D2B512091EC2B722AB
:1006E100B45ED25FD14CDFA321CBDC6B90E620CB93
:1006F10030A91C4450D2C30271ED746C558C9030FA
:10070100B7D4813C1DB165FBA4ABD15F904EBE65F2
:1007110034278D453031323334353637383941421B
:10072100434445460057656C636F6D6500436172D4
:10073100643A20004361726473204E756D62657284
:030741003A20005B
:1009740010890000000000000000000000000000DA
:1009840000000683000000000000C1000110000107
:040994000D00C18110
:10099900EF4E601EEF1F70011EE4FCFDC3ED949045
:1009A900EC940150EB0000000000000DBD00010CAB
:0209B90080EAD2
:0109BB002219
:100A7800438920758DF3758BF3439850D28ED2AC91
:030A8800D2AF22C8
:090AD700EFF5993099FDC2992256
:10094F008B118A128913AB11AA12A9131200F96025
:10095F00130513E5137002051214F91200F9FF12B3
:05096F000AD780E2221E
:0C0ACB00C2947F0F7E00120999D2942281
:100AAE00D292120848120AF0120A8B7F410208965F
:0D0ABE00120AAEE4F50EF50FF508020ACBA2
:10030800E4F521F522F523F524F525F526D2021288
:1003180008487B007A0079657F26120744AB07EB13
:100328006003C20022D2007B007A007967120518A8
:10033800AB07EB600302041078097C007D007B00AA
:100348007A0079677E007F041200D37B007A0079F7
:100358000912049DAB07EB600122E4F521F522E4C4
:10036800F523F524E522AE217802C333CE33CED867
:10037800F924E1F58274063EF583E5822524F582A9
:10038800E5833523F583E493FF74092524F8E6B55E
:1003980007080526E526700205250524E5247002D0
:1003A80005236404452370BCE52664044525700EC6
:1003B800F525F526C2957FC8FE1209998018E4F53F
:1003C80025F5260522E52270020521C3940DE521B5
:1003D800648094804089E50864A1702CF508AD0F0D
:1003E800F52C752D00752E09FB7A0079837F601234
:1003F8000605AB07EB7011AF0F7B007A0079891205
:08040800067AEF70031208E10F
:0104100022C9
:1007F8008B148A158916E4F510AB14AA15A9168569
:10080800108275830012011254F0C4540FFFE510D2
:1008180025E02400F582E43400F583EFF0851082AA
:10082800758300120112540FFFE51025E02401F52D
:1008380082E43400F583EFF00510E510B404BA2221
:1007A5007F01120AE07F84120AE0E4F510E510905B
:1007B500072693FF6007120AE8051080F07FC01234
:1007C5000AE0E4F510E51090073593FF6007120A7B
:1007D500E8051080F0E50D75F00A8490071593FF84
:1007E500120AE8E50D75F00A84E5F090071593FF08
:0307F500020AE80D
:1009F500120ABE3000083000FA12030880F8D295BA
:080A05002000F012030880F844
:100A3A00E4FDFCC3ED9FEC9E500A0000000DBD00D2
:040A4A00010C80EF2C
:010A4E002285
:1009DB00E4FFFEEF25E0FFC2A6000030A4034307AF
:0909EB0001D2A600000EBE08EACC
:0109F40022E0
:1009BC00E4FEEF30E704D2A58002C2A50000C2A677
:0E09CC000000D2A60000EF25E0FF0EBE08E4FA
:0109DA0022FA
:080744008F278B288A29892ADE
:10074C00120A247D077F0D120A117D037F14120AF1
:10075C009D85272D754801754900754A00754B2DEF
:10076C00754C00754D00754E2B7A00792D12019247
:10077C00EF7023E52C6410452B701BAB28AA29A91C
:10078C002AE52D12013FAB28AA29A92A900001E5E0
:08079C002E12015180027FFEC4
:0107A4002232
:060518008B278A288929C7
:10051E00E4F52B120A24E4FD7F0D120A117D807F73
:10052E000E120A28752E93752F20754802754900F4
:10053E00754A00754B2E754C00754D00754E2C7A14
:10054E0000792E1201928F2AE52A702BFF742E2F1E
:10055E00F8E6AB27AA28A9298F82758300120151CC
:10056E00742E2FF8E6622B0FBF04E2742E2FF8E6DE
:10057E00652B6003752AFE7D807F0E120A9DAF2AC1
:01058E00224A
:06049D008B278A28892943
:1004A300752C93752D70E4F532FFAB27AA28A92983
:1004B3008F82758300120112FE742E2FF8A6068F09
:1004C3008275830012011262320FBF04DD75420090
:1004D3007543007544337B007A00792C7D07120540
:1004E3008F120A24754809754900754A00754B2C0B
:1004F300754C00754D00754E2A7B007A00792C7F70
:100503000C120196EF700BE52B6418452A7003FF5C
:0405130080027FFEE5
:0105170022C1
:060605008B298A2A892BD3
:10060B008F328D33E4FFAB29AA2AA92B8F827583F6
:10061B0000120112FE74342FF8A6060FBF06E7E492
:10062B00FFAB2CAA2DA92E8F82758300120112FE0F
:10063B00743A2FF8A6060FBF06E775480C754900EC
:10064B00754A00754B32754C00754D00754E307BFD
:10065B00007A0079327F0E1201968F2FE52F7009E9
:0E066B007F08120A4FEF20E303752FFEAF2F1A
:01067900225E
:06067A008B278A28892964
:10068000752C308F2D75420075430075442E7B000C
:100690007A00792C7D0212058F7548047549007522
:1006A0004A00754B2C754C00754D00754E2A7B0029
:1006B0007A00792C7F0C120196EF7022E52B649062
:1006C000452A701AFE742C2EF8E6AB27AA28A92911
:1006D0008E827583001201510EBE10E980027FFEEA
:0106E00022F7
:1008E100752A50E4F52BF54275430075442CFB7ACB
:1008F10000792A7D0212058F754804754900754AF1
:1009010000754B2A754C00754D00754E287B007A99
:0C09110000792A7F0C1201968F277F00CE
:01091D0022B7
:08058F008B3E8A3F89408D413B
:100597007D047F05120A28120A0D7D807F0A120A40
:1005A7009DE4F545E545C395415019AB3EAA3FA9E2
:1005B70040854582758300120112FD7F09120A11D9
:1005C700054580E07D037F01120A117545FF7F0510
:1005D700120A4F1545E5456004EF30E2F17F22121C
:1005E7000A4FAB42AA43A944EF12013F7F21120AE7
:0E05F7004FAB42AA43A944900001EF0201510C
:10084800D2A07F0A7E00120A3AC2A0120A3AD2A0A7
:10085800120A3A7D0F7F01120A117F0A7E00120ADE
:100868003A7D3D7F11120A117D1E7F2D120A11E477
:10087800FD7F2C120A117D8D7F2A120A117D3E7F81
:0E0888002B120A117D407F15120A117F0022EB
:10089600EF64417040120A247D3D7F11120A117DDA
:1008A600867F17120A117D7F7F26120A117D1E7F11
:1008B6002D120A11E4FD7F2C120A117D8D7F2A125A
:1008C6000A117D3E7F2B120A117FE87E03120A3A37
:0B08D600120A8B80037FFF227F0022AC
:100A4F00E4FEC2A7EF25E0547E4480FF1209BC12DA
:040A5F0009DBD2A736
:010A63002270
:040A0D00E4FD7F0184
:100A1100C2A7EF25E0547EFF1209BCAF051209BC45
:020A2100D2A75A
:010A230022B0
:020A9D00AC07A4
:0F0A9F00E4FE120A4FAE07AF04ED4EFD020A113E
:040A24007D087F08C2
:020A2800AC0719
:100A2A00E4FE120A4FAE07AF04EDF45EFD020A11AE
:040192007B007F0C63
:080196008F448B458A4689471E
:10019E00754FFEE4F550F551E54424F4600C24FE51
:1001AE00700E75501275511080067550777551305E
:1001BE00E5504480FD7F02120A117D807F04120AF1
:1001CE0028120A0D7D807F0A120A9DE4F553F5541C
:1001DE00C3E5549548E5539400501FAB45AA46A974
:1001EE0047855482855383120112FD7F09120A112D
:1001FE000554E55470DA055380D6AD447F01120ADA
:10020E0011E544B40C077D807F0D120A9D755307CE
:10021E007554D07F04120A4F8F52E5541554700254
:10022E001553E55445536009E55220E004555160DD
:10023E00E27D807F0D120A28E554455370030202B9
:10024E00FB7F06120A4FEF541B60030202F8F54FB4
:10025E00E552555030E003754FFFE544640C6003E2
:10026E000202FB7F0A120A4F8F527F0C120A4FEFC7
:10027E005407FD6021E55224FFFFE434FFFEEF78C2
:10028E0003C333CE33CED8F97C002DFFEC3EAB4CFE
:10029E00AA4DA94E800FE55275F008A4FFAB4CAAEB
:1002AE004DA94EE5F08FF0120173E55270037552B1
:1002BE0001E552D394124003755212E4F553F554EE
:1002CE00C3E5549552E553940050227F09120A4F0C
:1002DE00AB49AA4AA94B855482855383EF1201512B
:1002EE000554E55470DA055380D6754FFE7D807F38
:0902FE000C120A9D120A0DAF4F0B
:0103070022D3
:100A8B007F14120A4FEF540370077D037F14120A71
:010A9B009DBD
:010A9C002237
:070AF0007D037F14020A28B8
:03000000020411E6
:0C041100787FE4F6D8FD7581980204584D
:10000300E709F608DFFA8046E709F208DFFA803EDF
:1000130088828C83E709F0A3DFFA8032E309F608CC
:10002300DFFA8078E309F208DFFA807088828C8334
:10003300E309F0A3DFFA806489828A83E0A3F608E8
:10004300DFFA805889828A83E0A3F208DFFA804CC2
:1000530080D280FA80C680D4806980F28033801099
:1000630080A680EA809A80A880DA80E280CA803302
:1000730089828A83ECFAE493A3C8C582C8CCC5837A
:10008300CCF0A3C8C582C8CCC583CCDFE9DEE7804A
:100093000D89828A83E493A3F608DFF9ECFAA9F0C9
:1000A300EDFB2289828A83ECFAE0A3C8C582C8CC1F
:1000B300C583CCF0A3C8C582C8CCC583CCDFEADE38
:1000C300E880DB89828A83E493A3F208DFF980CC9A
:1000D30088F0EF60010E4E60C388F0ED2402B40493
:1000E3000050B9F582EB2402B4040050AF2323453A
:0600F3008223900053730C
:1000F900BB010689828A83E0225002E722BBFE0205
:09010900E32289828A83E4932237
:10011200BB010CE58229F582E5833AF583E02250A2
:1001220006E92582F8E622BBFE06E92582F8E222EC
:0D013200E58229F582E5833AF583E4932206
:10013F00BB010689828A83F0225002F722BBFE019F
:02014F00F32299
:10015100F8BB010DE58229F582E5833AF583E8F0E4
:10016100225006E92582C8F622BBFE05E92582C890
:02017100F22278
:10017300BB010A89828A83F0E5F0A3F0225006F7D7
:0F01830009A7F01922BBFE06F3E5F009F31922D4
:10041D000209F5E493A3F8E493A34003F68001F2F7
:10042D0008DFF48029E493A3F85407240CC8C333E0
:10043D00C4540F4420C8834004F456800146F6DFAF
:10044D00E4800B0102040810204080900974E47EC2
:10045D00019360BCA3FF543F30E509541FFEE493A4
:10046D00A360010ECF54C025E060A840B8E493A36B
:10047D00FAE493A3F8E493A3C8C582C8CAC583CA96
:10048D00F0A3C8C582C8CAC583CADFE9DEE780BE4E
:01099800005E
:00000001FF
