:10095200C2B6C2B78F807F057E00120965D2B77F0B
:03096200057E000F
:10096500D3EF9400EE940040147D6E7C00ED1D7075
:0D097500011CED4C70F7EF1F70E61E80E3D3
:010982002252
:080B1F00C2B5120952C2B7224F
:100AB6007F38120B1F7F0C120B1F7F06120B1F7F36
:040AC60001020B1FFF
:080B2700D2B5120952C2B72237
:10041100B45ED25FD14CDFA321CBDC6B90E620CB65
:1004210030A91C4450D2C30271ED746C558C9030CC
:10043100B7D4813C1DB165FBA4ABD15F904EBE65C5
:1004410034278D452B2F823399AA95BF71A078D07F
:1004510060F3940279059CBF3113056C915177D0FB
:10046100390F9BBFADA499FB41B92D36A1C3CEB0C5
:1004710077192B7B6D2372FB3031323334353637AC
:1004810038394142434445460057656C636F6D6599
:1004910000436172643A20004361726473204E75B7
:0704A1006D6265723A200054
:1009A80010890000000000000000000000000000A6
:1009B80000000683000000000000C10001100001D3
:0409C8000D00C181DC
:1009CD00EF4E601EEF1F70011EE4FCFDC3ED949011
:1009DD00EC940150EB0000000000000DBD00010C77
:0209ED0080EA9E
:0109EF0022E5
:100A6000438920758DF3758BF3439850438780D26B
:060A70008ED2ACD2AF22D1
:090B1600EFF5993099FDC2992216
:100983008B118A128913AB11AA12A9131200F960F1
:10099300130513E5137002051214F91200F9FF127F
:0509A3000B1680E222AA
:0C0B0A00C2947F0F7E001209CDD294220D
:100AED00D29212087C120B2F120ACA7F410208CA39
:0D0AFD00120AEDE4F50EF50FF508020B0AE4
:10030800E4F521F522F523F524F525F526D2021288
:10031800087C7B007A0079657F26120778AB07EBAB
:100328006003C20022D2007B007A0079671205AF11
:10033800AB07EB600302041078097C007D007B00AA
:100348007A0079677E007F041200D37B007A0079F7
:1003580009120534AB07EB600122E4F521F522E42C
:10036800F523F524E522AE217802C333CE33CED867
:10037800F92411F58274043EF583E5822524F5827B
:10038800E5833523F583E493FF74092524F8E6B55E
:1003980007080526E526700205250524E5247002D0
:1003A80005236404452370BCE52664044525700EC6
:1003B800F525F526C2957FC8FE1209CD8018E4F50B
:1003C80025F5260522E52270020521C3941AE521A8
:1003D800648094804089E50864A1702CF508AD0F0D
:1003E800F52C752D00752E09FB7A0079837F601234
:1003F800069CAB07EB7011AF0F7B007A007989126E
:080408000711EF700312091542
:0104100022C9
:10082C008B148A158916E4F510AB14AA15A9168534
:10083C00108275830012011254F0C4540FFFE5109E
:10084C0025E02400F582E43400F583EFF085108276
:10085C00758300120112540FFFE51025E02401F5F9
:10086C0082E43400F583EFF00510E510B404BA22ED
:1007D9007F01120B1F7F84120B1FE4F510E51090A7
:1007E900048A93FF6007120B27051080F07FC0125F
:1007F9000B1FE4F510E51090049993FF6007120BA5
:1008090027051080F0E50D75F00A8490047993FFAF
:10081900120B27E50D75F00A84E5F090047993FF32
:03082900020B2798
:1009F000120A60120AFD7F61120B163000083000E7
:100A0000FA12030880F8D2952000F012030880F84B
:100A8C00E4FDFCC3ED9FEC9E500A0000000DBD0080
:040A9C00010C80EFDA
:010AA0002233
:100A2F00E4FFFEEF25E0FFC2A6000030A40343075A
:090A3F0001D2A600000EBE08EA77
:010A4800228B
:100A1000E4FEEF30E704D2A58002C2A50000C2A622
:0E0A20000000D2A60000EF25E0FF0EBE08E4A5
:010A2E0022A5
:080778008F278B288A29892AAA
:10078000120A767D077F0D120A4D7D037F14120A2F
:10079000DC85272D754801754900754A00754B2D7C
:1007A000754C00754D00754E2B7A00792D12019213
:1007B000EF7023E52C6410452B701BAB28AA29A9E8
:1007C0002AE52D12013FAB28AA29A92A900001E5AC
:0807D0002E12015180027FFE90
:0107D80022FE
:0605AF008B278A28892930
:1005B500E4F52B120A76E4FD7F0D120A4D7D807F4E
:1005C5000E120A7A752E93752F207548027549000B
:1005D500754A00754B2E754C00754D00754E2C7A7D
:1005E50000792E1201928F2AE52A702BFF742E2F87
:1005F500F8E6AB27AA28A9298F8275830012015135
:10060500742E2FF8E6622B0FBF04E2742E2FF8E646
:10061500652B6003752AFE7D807F0E120ADCAF2AEA
:0106250022B2
:060534008B278A288929AB
:10053A00752C93752D70E4F532FFAB27AA28A929EB
:10054A008F82758300120112FE742E2FF8A6068F71
:10055A008275830012011262320FBF04DD754200F8
:10056A007543007544337B007A00792C7D071206A7
:10057A0026120A76754809754900754A00754B2C8A
:10058A00754C00754D00754E2A7B007A00792C7FD8
:10059A000C120196EF700BE52B6418452A7003FFC5
:0405AA0080027FFE4E
:0105AE00222A
:06069C008B298A2A892B3C
:1006A2008F328D33E4FFAB29AA2AA92B8F8275835F
:1006B20000120112FE74342FF8A6060FBF06E7E4FB
:1006C200FFAB2CAA2DA92E8F82758300120112FE78
:1006D200743A2FF8A6060FBF06E775480C75490055
:1006E200754A00754B32754C00754D00754E307B66
:1006F200007A0079327F0E1201968F2FE52F700952
:0E0702007F08120AA1EF20E303752FFEAF2F30
:0107100022C6
:060711008B278A288929CC
:10071700752C308F2D75420075430075442E7B0074
:100727007A00792C7D0212062675480475490075F2
:100737004A00754B2C754C00754D00754E2A7B0091
:100747007A00792C7F0C120196EF7022E52B6490CA
:10075700452A701AFE742C2EF8E6AB27AA28A92979
:100767008E827583001201510EBE10E980027FFE52
:01077700225F
:10091500752A50E4F52BF54275430075442CFB7A96
:1009250000792A7D02120626754804754900754A24
:1009350000754B2A754C00754D00754E287B007A65
:0C09450000792A7F0C1201968F277F009A
:010951002283
:080626008B3E8A3F89408D41A3
:10062E007D047F05120A7A120A497D807F0A120A1A
:10063E00DCE4F545E545C395415019AB3EAA3FA90B
:10064E0040854582758300120112FD7F09120A4D05
:10065E00054580E07D037F01120A4D7545FF7F053C
:10066E00120AA11545E5456004EF30E2F17F221232
:10067E000AA1AB42AA43A944EF12013F7F21120AFD
:0E068E00A1AB42AA43A944900001EF02015122
:10087C00D2A07F0A7E00120A8CC2A0120A8CD2A0CF
:10088C00120A8C7D0F7F01120A4D7F0A7E00120A1C
:10089C008C7D3D7F11120A4D7D1E7F2D120A4DE479
:1008AC00FD7F2C120A4D7D8D7F2A120A4D7D3E7FD5
:0E08BC002B120A4D7D407F15120A4D7F00223F
:1008CA00EF64417040120A767D3D7F11120A4D7D18
:1008DA00867F17120A4D7D7F7F26120A4D7D1E7F65
:1008EA002D120A4DE4FD7F2C120A4D7D8D7F2A12AE
:1008FA000A4D7D3E7F2B120A4D7FE87E03120A8C39
:0B090A00120ACA80037FFF227F002238
:100AA100E4FEC2A7EF25E0547E4480FF120A101233
:040AB1000A2FD2A78F
:010AB500221E
:040A4900E4FD7F0148
:100A4D00C2A7EF25E0547EFF120A10AF05120A105F
:020A5D00D2A71E
:010A5F002274
:020ADC00AC0765
:0F0ADE00E4FE120AA1AE07AF04ED4EFD020A4D71
:040A76007D087F0870
:020A7A00AC07C7
:100A7C00E4FE120AA1AE07AF04EDF45EFD020A4DCE
:040192007B007F0C63
:080196008F448B458A4689471E
:10019E00754FFEE4F550F551E54424F4600C24FE51
:1001AE00700E75501275511080067550777551305E
:1001BE00E5504480FD7F02120A4D7D807F04120AB5
:1001CE007A120A497D807F0A120ADCE4F553F5544F
:1001DE00C3E5549548E5539400501FAB45AA46A974
:1001EE0047855482855383120112FD7F09120A4DF1
:1001FE000554E55470DA055380D6AD447F01120ADA
:10020E004DE544B40C077D807F0D120ADC75530753
:10021E007554D07F04120AA18F52E5541554700202
:10022E001553E55445536009E55220E004555160DD
:10023E00E27D807F0D120A7AE55445537003020267
:10024E00FB7F06120AA1EF541B60030202F8F54F62
:10025E00E552555030E003754FFFE544640C6003E2
:10026E000202FB7F0A120AA18F527F0C120AA1EF23
:10027E005407FD6021E55224FFFFE434FFFEEF78C2
:10028E0003C333CE33CED8F97C002DFFEC3EAB4CFE
:10029E00AA4DA94E800FE55275F008A4FFAB4CAAEB
:1002AE004DA94EE5F08FF0120173E55270037552B1
:1002BE0001E552D394124003755212E4F553F554EE
:1002CE00C3E5549552E553940050227F09120AA1BA
:1002DE00AB49AA4AA94B855482855383EF1201512B
:1002EE000554E55470DA055380D6754FFE7D807F38
:0902FE000C120ADC120A49AF4F90
:0103070022D3
:100ACA007F14120AA1EF540370077D037F14120AE0
:010ADA00DC3F
:010ADB0022F8
:070B2F007D037F14020A7A26
:030000000204A84F
:0C04A800787FE4F6D8FD7581980204EF1F
:10000300E709F608DFFA8046E709F208DFFA803EDF
:1000130088828C83E709F0A3DFFA8032E309F608CC
:10002300DFFA8078E309F208DFFA807088828C8334
:10003300E309F0A3DFFA806489828A83E0A3F608E8
:10004300DFFA805889828A83E0A3F208DFFA804CC2
:1000530080D280FA80C680D4806980F28033801099
:1000630080A680EA809A80A880DA80E280CA803302
:1000730089828A83ECFAE493A3C8C582C8CCC5837A
:10008300CCF0A3C8C582C8CCC583CCDFE9DEE7804A
:100093000D89828A83E493A3F608DFF9ECFAA9F0C9
:1000A300EDFB2289828A83ECFAE0A3C8C582C8CC1F
:1000B300C583CCF0A3C8C582C8CCC583CCDFEADE38
:1000C300E880DB89828A83E493A3F208DFF980CC9A
:1000D30088F0EF60010E4E60C388F0ED2402B40493
:1000E3000050B9F582EB2402B4040050AF2323453A
:0600F3008223900053730C
:1000F900BB010689828A83E0225002E722BBFE0205
:09010900E32289828A83E4932237
:10011200BB010CE58229F582E5833AF583E02250A2
:1001220006E92582F8E622BBFE06E92582F8E222EC
:0D013200E58229F582E5833AF583E4932206
:10013F00BB010689828A83F0225002F722BBFE019F
:02014F00F32299
:10015100F8BB010DE58229F582E5833AF583E8F0E4
:10016100225006E92582C8F622BBFE05E92582C890
:02017100F22278
:10017300BB010A89828A83F0E5F0A3F0225006F7D7
:0F01830009A7F01922BBFE06F3E5F009F31922D4
:1004B4000209F0E493A3F8E493A34003F68001F265
:1004C40008DFF48029E493A3F85407240CC8C33349
:1004D400C4540F4420C8834004F456800146F6DF18
:1004E400E4800B01020408102040809009A8E47EF7
:1004F400019360BCA3FF543F30E509541FFEE4930D
:10050400A360010ECF54C025E060A840B8E493A3D3
:10051400FAE493A3F8E493A3C8C582C8CAC583CAFE
:10052400F0A3C8C582C8CAC583CADFE9DEE780BEB6
:0109CC00002A
:00000001FF
